{
  "_format": "hh-sol-artifact-1",
  "contractName": "VideoNFTMarketplace",
  "sourceName": "contracts/contract.sol",
  "abi": [
    {
      "inputs": [],
      "stateMutability": "nonpayable",
      "type": "constructor"
    },
    {
      "inputs": [
        {
          "internalType": "address",
          "name": "sender",
          "type": "address"
        },
        {
          "internalType": "uint256",
          "name": "tokenId",
          "type": "uint256"
        },
        {
          "internalType": "address",
          "name": "owner",
          "type": "address"
        }
      ],
      "name": "ERC721IncorrectOwner",
      "type": "error"
    },
    {
      "inputs": [
        {
          "internalType": "address",
          "name": "operator",
          "type": "address"
        },
        {
          "internalType": "uint256",
          "name": "tokenId",
          "type": "uint256"
        }
      ],
      "name": "ERC721InsufficientApproval",
      "type": "error"
    },
    {
      "inputs": [
        {
          "internalType": "address",
          "name": "approver",
          "type": "address"
        }
      ],
      "name": "ERC721InvalidApprover",
      "type": "error"
    },
    {
      "inputs": [
        {
          "internalType": "address",
          "name": "operator",
          "type": "address"
        }
      ],
      "name": "ERC721InvalidOperator",
      "type": "error"
    },
    {
      "inputs": [
        {
          "internalType": "address",
          "name": "owner",
          "type": "address"
        }
      ],
      "name": "ERC721InvalidOwner",
      "type": "error"
    },
    {
      "inputs": [
        {
          "internalType": "address",
          "name": "receiver",
          "type": "address"
        }
      ],
      "name": "ERC721InvalidReceiver",
      "type": "error"
    },
    {
      "inputs": [
        {
          "internalType": "address",
          "name": "sender",
          "type": "address"
        }
      ],
      "name": "ERC721InvalidSender",
      "type": "error"
    },
    {
      "inputs": [
        {
          "internalType": "uint256",
          "name": "tokenId",
          "type": "uint256"
        }
      ],
      "name": "ERC721NonexistentToken",
      "type": "error"
    },
    {
      "anonymous": false,
      "inputs": [
        {
          "indexed": true,
          "internalType": "address",
          "name": "owner",
          "type": "address"
        },
        {
          "indexed": true,
          "internalType": "address",
          "name": "approved",
          "type": "address"
        },
        {
          "indexed": true,
          "internalType": "uint256",
          "name": "tokenId",
          "type": "uint256"
        }
      ],
      "name": "Approval",
      "type": "event"
    },
    {
      "anonymous": false,
      "inputs": [
        {
          "indexed": true,
          "internalType": "address",
          "name": "owner",
          "type": "address"
        },
        {
          "indexed": true,
          "internalType": "address",
          "name": "operator",
          "type": "address"
        },
        {
          "indexed": false,
          "internalType": "bool",
          "name": "approved",
          "type": "bool"
        }
      ],
      "name": "ApprovalForAll",
      "type": "event"
    },
    {
      "anonymous": false,
      "inputs": [
        {
          "indexed": false,
          "internalType": "uint256",
          "name": "_fromTokenId",
          "type": "uint256"
        },
        {
          "indexed": false,
          "internalType": "uint256",
          "name": "_toTokenId",
          "type": "uint256"
        }
      ],
      "name": "BatchMetadataUpdate",
      "type": "event"
    },
    {
      "anonymous": false,
      "inputs": [
        {
          "indexed": false,
          "internalType": "uint256",
          "name": "_tokenId",
          "type": "uint256"
        }
      ],
      "name": "MetadataUpdate",
      "type": "event"
    },
    {
      "anonymous": false,
      "inputs": [
        {
          "indexed": false,
          "internalType": "uint256",
          "name": "itemId",
          "type": "uint256"
        },
        {
          "indexed": false,
          "internalType": "uint256",
          "name": "tokenId",
          "type": "uint256"
        },
        {
          "indexed": false,
          "internalType": "uint256",
          "name": "price",
          "type": "uint256"
        },
        {
          "indexed": true,
          "internalType": "address",
          "name": "seller",
          "type": "address"
        }
      ],
      "name": "Offered",
      "type": "event"
    },
    {
      "anonymous": false,
      "inputs": [
        {
          "indexed": false,
          "internalType": "uint256",
          "name": "itemId",
          "type": "uint256"
        },
        {
          "indexed": false,
          "internalType": "uint256",
          "name": "tokenId",
          "type": "uint256"
        },
        {
          "indexed": false,
          "internalType": "uint256",
          "name": "price",
          "type": "uint256"
        },
        {
          "indexed": true,
          "internalType": "address",
          "name": "buyer",
          "type": "address"
        }
      ],
      "name": "Purchased",
      "type": "event"
    },
    {
      "anonymous": false,
      "inputs": [
        {
          "indexed": true,
          "internalType": "address",
          "name": "from",
          "type": "address"
        },
        {
          "indexed": true,
          "internalType": "address",
          "name": "to",
          "type": "address"
        },
        {
          "indexed": true,
          "internalType": "uint256",
          "name": "tokenId",
          "type": "uint256"
        }
      ],
      "name": "Transfer",
      "type": "event"
    },
    {
      "anonymous": false,
      "inputs": [
        {
          "indexed": false,
          "internalType": "uint256",
          "name": "tokenId",
          "type": "uint256"
        },
        {
          "indexed": false,
          "internalType": "uint256",
          "name": "price",
          "type": "uint256"
        }
      ],
      "name": "VideoNFTListed",
      "type": "event"
    },
    {
      "inputs": [
        {
          "internalType": "address",
          "name": "to",
          "type": "address"
        },
        {
          "internalType": "uint256",
          "name": "tokenId",
          "type": "uint256"
        }
      ],
      "name": "approve",
      "outputs": [],
      "stateMutability": "nonpayable",
      "type": "function"
    },
    {
      "inputs": [
        {
          "internalType": "address",
          "name": "owner",
          "type": "address"
        }
      ],
      "name": "balanceOf",
      "outputs": [
        {
          "internalType": "uint256",
          "name": "",
          "type": "uint256"
        }
      ],
      "stateMutability": "view",
      "type": "function"
    },
    {
      "inputs": [
        {
          "internalType": "uint256",
          "name": "tokenId",
          "type": "uint256"
        }
      ],
      "name": "getApproved",
      "outputs": [
        {
          "internalType": "address",
          "name": "",
          "type": "address"
        }
      ],
      "stateMutability": "view",
      "type": "function"
    },
    {
      "inputs": [
        {
          "internalType": "uint256",
          "name": "_itemId",
          "type": "uint256"
        }
      ],
      "name": "getTotalPrice",
      "outputs": [
        {
          "internalType": "uint256",
          "name": "",
          "type": "uint256"
        }
      ],
      "stateMutability": "view",
      "type": "function"
    },
    {
      "inputs": [
        {
          "internalType": "uint256",
          "name": "",
          "type": "uint256"
        },
        {
          "internalType": "address",
          "name": "",
          "type": "address"
        }
      ],
      "name": "hasAccessToVideo",
      "outputs": [
        {
          "internalType": "bool",
          "name": "",
          "type": "bool"
        }
      ],
      "stateMutability": "view",
      "type": "function"
    },
    {
      "inputs": [
        {
          "internalType": "uint256",
          "name": "tokenId",
          "type": "uint256"
        },
        {
          "internalType": "address",
          "name": "user",
          "type": "address"
        }
      ],
      "name": "hasPurchased",
      "outputs": [
        {
          "internalType": "bool",
          "name": "",
          "type": "bool"
        }
      ],
      "stateMutability": "view",
      "type": "function"
    },
    {
      "inputs": [
        {
          "internalType": "address",
          "name": "owner",
          "type": "address"
        },
        {
          "internalType": "address",
          "name": "operator",
          "type": "address"
        }
      ],
      "name": "isApprovedForAll",
      "outputs": [
        {
          "internalType": "bool",
          "name": "",
          "type": "bool"
        }
      ],
      "stateMutability": "view",
      "type": "function"
    },
    {
      "inputs": [],
      "name": "itemCount",
      "outputs": [
        {
          "internalType": "uint256",
          "name": "",
          "type": "uint256"
        }
      ],
      "stateMutability": "view",
      "type": "function"
    },
    {
      "inputs": [
        {
          "internalType": "uint256",
          "name": "",
          "type": "uint256"
        }
      ],
      "name": "items",
      "outputs": [
        {
          "internalType": "uint256",
          "name": "itemId",
          "type": "uint256"
        },
        {
          "internalType": "uint256",
          "name": "tokenId",
          "type": "uint256"
        },
        {
          "internalType": "uint256",
          "name": "price",
          "type": "uint256"
        },
        {
          "internalType": "address payable",
          "name": "seller",
          "type": "address"
        },
        {
          "internalType": "bool",
          "name": "sold",
          "type": "bool"
        }
      ],
      "stateMutability": "view",
      "type": "function"
    },
    {
      "inputs": [
        {
          "internalType": "uint256",
          "name": "tokenId",
          "type": "uint256"
        },
        {
          "internalType": "uint256",
          "name": "price",
          "type": "uint256"
        }
      ],
      "name": "listVideoNFT",
      "outputs": [],
      "stateMutability": "nonpayable",
      "type": "function"
    },
    {
      "inputs": [
        {
          "internalType": "uint256",
          "name": "",
          "type": "uint256"
        }
      ],
      "name": "listedItems",
      "outputs": [
        {
          "internalType": "uint256",
          "name": "",
          "type": "uint256"
        }
      ],
      "stateMutability": "view",
      "type": "function"
    },
    {
      "inputs": [
        {
          "internalType": "string",
          "name": "_tokenURI",
          "type": "string"
        },
        {
          "internalType": "uint256",
          "name": "_price",
          "type": "uint256"
        }
      ],
      "name": "mint",
      "outputs": [
        {
          "internalType": "uint256",
          "name": "",
          "type": "uint256"
        }
      ],
      "stateMutability": "nonpayable",
      "type": "function"
    },
    {
      "inputs": [],
      "name": "name",
      "outputs": [
        {
          "internalType": "string",
          "name": "",
          "type": "string"
        }
      ],
      "stateMutability": "view",
      "type": "function"
    },
    {
      "inputs": [
        {
          "internalType": "uint256",
          "name": "tokenId",
          "type": "uint256"
        }
      ],
      "name": "ownerOf",
      "outputs": [
        {
          "internalType": "address",
          "name": "",
          "type": "address"
        }
      ],
      "stateMutability": "view",
      "type": "function"
    },
    {
      "inputs": [
        {
          "internalType": "uint256",
          "name": "_itemId",
          "type": "uint256"
        }
      ],
      "name": "purchaseItem",
      "outputs": [],
      "stateMutability": "payable",
      "type": "function"
    },
    {
      "inputs": [
        {
          "internalType": "address",
          "name": "from",
          "type": "address"
        },
        {
          "internalType": "address",
          "name": "to",
          "type": "address"
        },
        {
          "internalType": "uint256",
          "name": "tokenId",
          "type": "uint256"
        }
      ],
      "name": "safeTransferFrom",
      "outputs": [],
      "stateMutability": "nonpayable",
      "type": "function"
    },
    {
      "inputs": [
        {
          "internalType": "address",
          "name": "from",
          "type": "address"
        },
        {
          "internalType": "address",
          "name": "to",
          "type": "address"
        },
        {
          "internalType": "uint256",
          "name": "tokenId",
          "type": "uint256"
        },
        {
          "internalType": "bytes",
          "name": "data",
          "type": "bytes"
        }
      ],
      "name": "safeTransferFrom",
      "outputs": [],
      "stateMutability": "nonpayable",
      "type": "function"
    },
    {
      "inputs": [
        {
          "internalType": "address",
          "name": "operator",
          "type": "address"
        },
        {
          "internalType": "bool",
          "name": "approved",
          "type": "bool"
        }
      ],
      "name": "setApprovalForAll",
      "outputs": [],
      "stateMutability": "nonpayable",
      "type": "function"
    },
    {
      "inputs": [
        {
          "internalType": "bytes4",
          "name": "interfaceId",
          "type": "bytes4"
        }
      ],
      "name": "supportsInterface",
      "outputs": [
        {
          "internalType": "bool",
          "name": "",
          "type": "bool"
        }
      ],
      "stateMutability": "view",
      "type": "function"
    },
    {
      "inputs": [],
      "name": "symbol",
      "outputs": [
        {
          "internalType": "string",
          "name": "",
          "type": "string"
        }
      ],
      "stateMutability": "view",
      "type": "function"
    },
    {
      "inputs": [],
      "name": "tokenCount",
      "outputs": [
        {
          "internalType": "uint256",
          "name": "",
          "type": "uint256"
        }
      ],
      "stateMutability": "view",
      "type": "function"
    },
    {
      "inputs": [
        {
          "internalType": "uint256",
          "name": "tokenId",
          "type": "uint256"
        }
      ],
      "name": "tokenURI",
      "outputs": [
        {
          "internalType": "string",
          "name": "",
          "type": "string"
        }
      ],
      "stateMutability": "view",
      "type": "function"
    },
    {
      "inputs": [
        {
          "internalType": "address",
          "name": "from",
          "type": "address"
        },
        {
          "internalType": "address",
          "name": "to",
          "type": "address"
        },
        {
          "internalType": "uint256",
          "name": "tokenId",
          "type": "uint256"
        }
      ],
      "name": "transferFrom",
      "outputs": [],
      "stateMutability": "nonpayable",
      "type": "function"
    }
  ],
  "bytecode": "0x608060405234801561001057600080fd5b506040518060400160405280600881526020017f566964656f4e46540000000000000000000000000000000000000000000000008152506040518060400160405280600381526020017f564e540000000000000000000000000000000000000000000000000000000000815250816000908161008c91906102f4565b50806001908161009c91906102f4565b5050506103c6565b600081519050919050565b7f4e487b7100000000000000000000000000000000000000000000000000000000600052604160045260246000fd5b7f4e487b7100000000000000000000000000000000000000000000000000000000600052602260045260246000fd5b6000600282049050600182168061012557607f821691505b602082108103610138576101376100de565b5b50919050565b60008190508160005260206000209050919050565b60006020601f8301049050919050565b600082821b905092915050565b6000600883026101a07fffffffffffffffffffffffffffffffffffffffffffffffffffffffffffffffff82610163565b6101aa8683610163565b95508019841693508086168417925050509392505050565b6000819050919050565b6000819050919050565b60006101f16101ec6101e7846101c2565b6101cc565b6101c2565b9050919050565b6000819050919050565b61020b836101d6565b61021f610217826101f8565b848454610170565b825550505050565b600090565b610234610227565b61023f818484610202565b505050565b5b818110156102635761025860008261022c565b600181019050610245565b5050565b601f8211156102a8576102798161013e565b61028284610153565b81016020851015610291578190505b6102a561029d85610153565b830182610244565b50505b505050565b600082821c905092915050565b60006102cb600019846008026102ad565b1980831691505092915050565b60006102e483836102ba565b9150826002028217905092915050565b6102fd826100a4565b67ffffffffffffffff811115610316576103156100af565b5b610320825461010d565b61032b828285610267565b600060209050601f83116001811461035e576000841561034c578287015190505b61035685826102d8565b8655506103be565b601f19841661036c8661013e565b60005b828110156103945784890151825560018201915060208501945060208101905061036f565b868310156103b157848901516103ad601f8916826102ba565b8355505b6001600288020188555050505b505050505050565b613149806103d56000396000f3fe6080604052600436106101405760003560e01c806370a08231116100b6578063c87b56dd1161006f578063c87b56dd14610496578063ca7dd375146104d3578063d234706114610510578063d38ea5bf1461054d578063dc9da2f814610569578063e985e9c5146105a657610140565b806370a082311461037057806395d89b41146103ad5780639f181b5e146103d8578063a22cb46514610403578063b88d4fde1461042c578063bfb231d21461045557610140565b80631969a8ea116101085780631969a8ea1461025057806323b872dd146102795780632c90b8c5146102a257806342842e0e146102df5780636352211e146103085780636bfb0d011461034557610140565b806301ffc9a714610145578063056b01ce1461018257806306fdde03146101bf578063081812fc146101ea578063095ea7b314610227575b600080fd5b34801561015157600080fd5b5061016c60048036038101906101679190612198565b6105e3565b60405161017991906121e0565b60405180910390f35b34801561018e57600080fd5b506101a960048036038101906101a49190612377565b610644565b6040516101b691906123e2565b60405180910390f35b3480156101cb57600080fd5b506101d46107dc565b6040516101e1919061247c565b60405180910390f35b3480156101f657600080fd5b50610211600480360381019061020c919061249e565b61086e565b60405161021e919061250c565b60405180910390f35b34801561023357600080fd5b5061024e60048036038101906102499190612553565b61088a565b005b34801561025c57600080fd5b5061027760048036038101906102729190612593565b6108a0565b005b34801561028557600080fd5b506102a0600480360381019061029b91906125d3565b6109ae565b005b3480156102ae57600080fd5b506102c960048036038101906102c49190612626565b610ab0565b6040516102d691906121e0565b60405180910390f35b3480156102eb57600080fd5b50610306600480360381019061030191906125d3565b610adf565b005b34801561031457600080fd5b5061032f600480360381019061032a919061249e565b610aff565b60405161033c919061250c565b60405180910390f35b34801561035157600080fd5b5061035a610b11565b60405161036791906123e2565b60405180910390f35b34801561037c57600080fd5b5061039760048036038101906103929190612666565b610b17565b6040516103a491906123e2565b60405180910390f35b3480156103b957600080fd5b506103c2610bd1565b6040516103cf919061247c565b60405180910390f35b3480156103e457600080fd5b506103ed610c63565b6040516103fa91906123e2565b60405180910390f35b34801561040f57600080fd5b5061042a600480360381019061042591906126bf565b610c69565b005b34801561043857600080fd5b50610453600480360381019061044e91906127a0565b610c7f565b005b34801561046157600080fd5b5061047c6004803603810190610477919061249e565b610ca4565b60405161048d959493929190612844565b60405180910390f35b3480156104a257600080fd5b506104bd60048036038101906104b8919061249e565b610d07565b6040516104ca919061247c565b60405180910390f35b3480156104df57600080fd5b506104fa60048036038101906104f5919061249e565b610e1a565b60405161050791906123e2565b60405180910390f35b34801561051c57600080fd5b506105376004803603810190610532919061249e565b610e52565b60405161054491906123e2565b60405180910390f35b6105676004803603810190610562919061249e565b610e6a565b005b34801561057557600080fd5b50610590600480360381019061058b9190612626565b61110c565b60405161059d91906121e0565b60405180910390f35b3480156105b257600080fd5b506105cd60048036038101906105c89190612897565b611174565b6040516105da91906121e0565b60405180910390f35b6000634906490660e01b7bffffffffffffffffffffffffffffffffffffffffffffffffffffffff1916827bffffffffffffffffffffffffffffffffffffffffffffffffffffffff1916148061063d575061063c82611208565b5b9050919050565b60006007600081548092919061065990612906565b91905055506008600081548092919061067190612906565b9190505550610682336007546112ea565b61068e60075484611308565b6040518060a00160405280600854815260200160075481526020018381526020013373ffffffffffffffffffffffffffffffffffffffff1681526020016000151581525060096000600854815260200190815260200160002060008201518160000155602082015181600101556040820151816002015560608201518160030160006101000a81548173ffffffffffffffffffffffffffffffffffffffff021916908373ffffffffffffffffffffffffffffffffffffffff16021790555060808201518160030160146101000a81548160ff0219169083151502179055509050503373ffffffffffffffffffffffffffffffffffffffff167fd846d2cfaaa23a2723be747ef18b5d16a1484d901d581da4843cc27638c862ad600854600754856040516107bd9392919061294e565b60405180910390a26107d1600754836108a0565b600754905092915050565b6060600080546107eb906129b4565b80601f0160208091040260200160405190810160405280929190818152602001828054610817906129b4565b80156108645780601f1061083957610100808354040283529160200191610864565b820191906000526020600020905b81548152906001019060200180831161084757829003601f168201915b5050505050905090565b600061087982611364565b50610883826113ec565b9050919050565b61089c8282610897611429565b611431565b5050565b3373ffffffffffffffffffffffffffffffffffffffff166108c083610aff565b73ffffffffffffffffffffffffffffffffffffffff1614610916576040517f08c379a000000000000000000000000000000000000000000000000000000000815260040161090d90612a31565b60405180910390fd5b60008111610959576040517f08c379a000000000000000000000000000000000000000000000000000000000815260040161095090612a9d565b60405180910390fd5b80600a6000848152602001908152602001600020819055507f0377ef54a9f66ad24cd4404b0bb1f9e8f73b445aea94dc055bb2ca0c3b46113682826040516109a2929190612abd565b60405180910390a15050565b600073ffffffffffffffffffffffffffffffffffffffff168273ffffffffffffffffffffffffffffffffffffffff1603610a205760006040517f64a0ae92000000000000000000000000000000000000000000000000000000008152600401610a17919061250c565b60405180910390fd5b6000610a348383610a2f611429565b611443565b90508373ffffffffffffffffffffffffffffffffffffffff168173ffffffffffffffffffffffffffffffffffffffff1614610aaa578382826040517f64283d7b000000000000000000000000000000000000000000000000000000008152600401610aa193929190612ae6565b60405180910390fd5b50505050565b600b6020528160005260406000206020528060005260406000206000915091509054906101000a900460ff1681565b610afa83838360405180602001604052806000815250610c7f565b505050565b6000610b0a82611364565b9050919050565b60085481565b60008073ffffffffffffffffffffffffffffffffffffffff168273ffffffffffffffffffffffffffffffffffffffff1603610b8a5760006040517f89c62b64000000000000000000000000000000000000000000000000000000008152600401610b81919061250c565b60405180910390fd5b600360008373ffffffffffffffffffffffffffffffffffffffff1673ffffffffffffffffffffffffffffffffffffffff168152602001908152602001600020549050919050565b606060018054610be0906129b4565b80601f0160208091040260200160405190810160405280929190818152602001828054610c0c906129b4565b8015610c595780601f10610c2e57610100808354040283529160200191610c59565b820191906000526020600020905b815481529060010190602001808311610c3c57829003601f168201915b5050505050905090565b60075481565b610c7b610c74611429565b838361165d565b5050565b610c8a8484846109ae565b610c9e610c95611429565b858585856117cc565b50505050565b60096020528060005260406000206000915090508060000154908060010154908060020154908060030160009054906101000a900473ffffffffffffffffffffffffffffffffffffffff16908060030160149054906101000a900460ff16905085565b6060610d1282611364565b506000600660008481526020019081526020016000208054610d33906129b4565b80601f0160208091040260200160405190810160405280929190818152602001828054610d5f906129b4565b8015610dac5780601f10610d8157610100808354040283529160200191610dac565b820191906000526020600020905b815481529060010190602001808311610d8f57829003601f168201915b505050505090506000610dbd61197d565b90506000815103610dd2578192505050610e15565b600082511115610e07578082604051602001610def929190612b59565b60405160208183030381529060405292505050610e15565b610e1084611994565b925050505b919050565b6000606460676009600085815260200190815260200160002060020154610e419190612b7d565b610e4b9190612bee565b9050919050565b600a6020528060005260406000206000915090505481565b6000610e7582610e1a565b90506000600960008481526020019081526020016000209050600083118015610ea057506008548311155b610edf576040517f08c379a0000000000000000000000000000000000000000000000000000000008152600401610ed690612c6b565b60405180910390fd5b81341015610f22576040517f08c379a0000000000000000000000000000000000000000000000000000000008152600401610f1990612cfd565b60405180910390fd5b8060030160009054906101000a900473ffffffffffffffffffffffffffffffffffffffff1673ffffffffffffffffffffffffffffffffffffffff163373ffffffffffffffffffffffffffffffffffffffff1603610fb4576040517f08c379a0000000000000000000000000000000000000000000000000000000008152600401610fab90612d69565b60405180910390fd5b8060030160009054906101000a900473ffffffffffffffffffffffffffffffffffffffff1673ffffffffffffffffffffffffffffffffffffffff166108fc82600201549081150290604051600060405180830381858888f19350505050158015611022573d6000803e3d6000fd5b5060018160030160146101000a81548160ff0219169083151502179055506001600b60008360010154815260200190815260200160002060003373ffffffffffffffffffffffffffffffffffffffff1673ffffffffffffffffffffffffffffffffffffffff16815260200190815260200160002060006101000a81548160ff0219169083151502179055503373ffffffffffffffffffffffffffffffffffffffff167fa923744d7e04ff4b7968f28603d15274656557c57da1606caa6feb90bd50a37b84836001015484600201546040516110ff9392919061294e565b60405180910390a2505050565b6000600b600084815260200190815260200160002060008373ffffffffffffffffffffffffffffffffffffffff1673ffffffffffffffffffffffffffffffffffffffff16815260200190815260200160002060009054906101000a900460ff16905092915050565b6000600560008473ffffffffffffffffffffffffffffffffffffffff1673ffffffffffffffffffffffffffffffffffffffff16815260200190815260200160002060008373ffffffffffffffffffffffffffffffffffffffff1673ffffffffffffffffffffffffffffffffffffffff16815260200190815260200160002060009054906101000a900460ff16905092915050565b60007f80ac58cd000000000000000000000000000000000000000000000000000000007bffffffffffffffffffffffffffffffffffffffffffffffffffffffff1916827bffffffffffffffffffffffffffffffffffffffffffffffffffffffff191614806112d357507f5b5e139f000000000000000000000000000000000000000000000000000000007bffffffffffffffffffffffffffffffffffffffffffffffffffffffff1916827bffffffffffffffffffffffffffffffffffffffffffffffffffffffff1916145b806112e357506112e2826119fd565b5b9050919050565b611304828260405180602001604052806000815250611a67565b5050565b806006600084815260200190815260200160002090816113289190612f35565b507ff8e1a15aba9398e019f0b49df1a4fde98ee17ae345cb5f6b5e2c27f5033e8ce78260405161135891906123e2565b60405180910390a15050565b60008061137083611a8b565b9050600073ffffffffffffffffffffffffffffffffffffffff168173ffffffffffffffffffffffffffffffffffffffff16036113e357826040517f7e2732890000000000000000000000000000000000000000000000000000000081526004016113da91906123e2565b60405180910390fd5b80915050919050565b60006004600083815260200190815260200160002060009054906101000a900473ffffffffffffffffffffffffffffffffffffffff169050919050565b600033905090565b61143e8383836001611ac8565b505050565b60008061144f84611a8b565b9050600073ffffffffffffffffffffffffffffffffffffffff168373ffffffffffffffffffffffffffffffffffffffff161461149157611490818486611c8d565b5b600073ffffffffffffffffffffffffffffffffffffffff168173ffffffffffffffffffffffffffffffffffffffff1614611522576114d3600085600080611ac8565b6001600360008373ffffffffffffffffffffffffffffffffffffffff1673ffffffffffffffffffffffffffffffffffffffff168152602001908152602001600020600082825403925050819055505b600073ffffffffffffffffffffffffffffffffffffffff168573ffffffffffffffffffffffffffffffffffffffff16146115a5576001600360008773ffffffffffffffffffffffffffffffffffffffff1673ffffffffffffffffffffffffffffffffffffffff168152602001908152602001600020600082825401925050819055505b846002600086815260200190815260200160002060006101000a81548173ffffffffffffffffffffffffffffffffffffffff021916908373ffffffffffffffffffffffffffffffffffffffff160217905550838573ffffffffffffffffffffffffffffffffffffffff168273ffffffffffffffffffffffffffffffffffffffff167fddf252ad1be2c89b69c2b068fc378daa952ba7f163c4a11628f55a4df523b3ef60405160405180910390a4809150509392505050565b600073ffffffffffffffffffffffffffffffffffffffff168273ffffffffffffffffffffffffffffffffffffffff16036116ce57816040517f5b08ba180000000000000000000000000000000000000000000000000000000081526004016116c5919061250c565b60405180910390fd5b80600560008573ffffffffffffffffffffffffffffffffffffffff1673ffffffffffffffffffffffffffffffffffffffff16815260200190815260200160002060008473ffffffffffffffffffffffffffffffffffffffff1673ffffffffffffffffffffffffffffffffffffffff16815260200190815260200160002060006101000a81548160ff0219169083151502179055508173ffffffffffffffffffffffffffffffffffffffff168373ffffffffffffffffffffffffffffffffffffffff167f17307eab39ab6107e8899845ad3d59bd9653f200f220920489ca2b5937696c31836040516117bf91906121e0565b60405180910390a3505050565b60008373ffffffffffffffffffffffffffffffffffffffff163b1115611976578273ffffffffffffffffffffffffffffffffffffffff1663150b7a02868685856040518563ffffffff1660e01b815260040161182b949392919061305c565b6020604051808303816000875af192505050801561186757506040513d601f19601f8201168201806040525081019061186491906130bd565b60015b6118eb573d8060008114611897576040519150601f19603f3d011682016040523d82523d6000602084013e61189c565b606091505b5060008151036118e357836040517f64a0ae920000000000000000000000000000000000000000000000000000000081526004016118da919061250c565b60405180910390fd5b805181602001fd5b63150b7a0260e01b7bffffffffffffffffffffffffffffffffffffffffffffffffffffffff1916817bffffffffffffffffffffffffffffffffffffffffffffffffffffffff19161461197457836040517f64a0ae9200000000000000000000000000000000000000000000000000000000815260040161196b919061250c565b60405180910390fd5b505b5050505050565b606060405180602001604052806000815250905090565b606061199f82611364565b5060006119aa61197d565b905060008151116119ca57604051806020016040528060008152506119f5565b806119d484611d51565b6040516020016119e5929190612b59565b6040516020818303038152906040525b915050919050565b60007f01ffc9a7000000000000000000000000000000000000000000000000000000007bffffffffffffffffffffffffffffffffffffffffffffffffffffffff1916827bffffffffffffffffffffffffffffffffffffffffffffffffffffffff1916149050919050565b611a718383611e1f565b611a86611a7c611429565b60008585856117cc565b505050565b60006002600083815260200190815260200160002060009054906101000a900473ffffffffffffffffffffffffffffffffffffffff169050919050565b8080611b015750600073ffffffffffffffffffffffffffffffffffffffff168273ffffffffffffffffffffffffffffffffffffffff1614155b15611c35576000611b1184611364565b9050600073ffffffffffffffffffffffffffffffffffffffff168373ffffffffffffffffffffffffffffffffffffffff1614158015611b7c57508273ffffffffffffffffffffffffffffffffffffffff168173ffffffffffffffffffffffffffffffffffffffff1614155b8015611b8f5750611b8d8184611174565b155b15611bd157826040517fa9fbf51f000000000000000000000000000000000000000000000000000000008152600401611bc8919061250c565b60405180910390fd5b8115611c3357838573ffffffffffffffffffffffffffffffffffffffff168273ffffffffffffffffffffffffffffffffffffffff167f8c5be1e5ebec7d5bd14f71427d1e84f3dd0314c0f7b2291e5b200ac8c7c3b92560405160405180910390a45b505b836004600085815260200190815260200160002060006101000a81548173ffffffffffffffffffffffffffffffffffffffff021916908373ffffffffffffffffffffffffffffffffffffffff16021790555050505050565b611c98838383611f18565b611d4c57600073ffffffffffffffffffffffffffffffffffffffff168373ffffffffffffffffffffffffffffffffffffffff1603611d0d57806040517f7e273289000000000000000000000000000000000000000000000000000000008152600401611d0491906123e2565b60405180910390fd5b81816040517f177e802f000000000000000000000000000000000000000000000000000000008152600401611d439291906130ea565b60405180910390fd5b505050565b606060006001611d6084611fd9565b01905060008167ffffffffffffffff811115611d7f57611d7e612216565b5b6040519080825280601f01601f191660200182016040528015611db15781602001600182028036833780820191505090505b509050600082602001820190505b600115611e14578080600190039150507f3031323334353637383961626364656600000000000000000000000000000000600a86061a8153600a8581611e0857611e07612bbf565b5b04945060008503611dbf575b819350505050919050565b600073ffffffffffffffffffffffffffffffffffffffff168273ffffffffffffffffffffffffffffffffffffffff1603611e915760006040517f64a0ae92000000000000000000000000000000000000000000000000000000008152600401611e88919061250c565b60405180910390fd5b6000611e9f83836000611443565b9050600073ffffffffffffffffffffffffffffffffffffffff168173ffffffffffffffffffffffffffffffffffffffff1614611f135760006040517f73c6ac6e000000000000000000000000000000000000000000000000000000008152600401611f0a919061250c565b60405180910390fd5b505050565b60008073ffffffffffffffffffffffffffffffffffffffff168373ffffffffffffffffffffffffffffffffffffffff1614158015611fd057508273ffffffffffffffffffffffffffffffffffffffff168473ffffffffffffffffffffffffffffffffffffffff161480611f915750611f908484611174565b5b80611fcf57508273ffffffffffffffffffffffffffffffffffffffff16611fb7836113ec565b73ffffffffffffffffffffffffffffffffffffffff16145b5b90509392505050565b600080600090507a184f03e93ff9f4daa797ed6e38ed64bf6a1f0100000000000000008310612037577a184f03e93ff9f4daa797ed6e38ed64bf6a1f010000000000000000838161202d5761202c612bbf565b5b0492506040810190505b6d04ee2d6d415b85acef81000000008310612074576d04ee2d6d415b85acef8100000000838161206a57612069612bbf565b5b0492506020810190505b662386f26fc1000083106120a357662386f26fc10000838161209957612098612bbf565b5b0492506010810190505b6305f5e10083106120cc576305f5e10083816120c2576120c1612bbf565b5b0492506008810190505b61271083106120f15761271083816120e7576120e6612bbf565b5b0492506004810190505b60648310612114576064838161210a57612109612bbf565b5b0492506002810190505b600a8310612123576001810190505b80915050919050565b6000604051905090565b600080fd5b600080fd5b60007fffffffff0000000000000000000000000000000000000000000000000000000082169050919050565b61217581612140565b811461218057600080fd5b50565b6000813590506121928161216c565b92915050565b6000602082840312156121ae576121ad612136565b5b60006121bc84828501612183565b91505092915050565b60008115159050919050565b6121da816121c5565b82525050565b60006020820190506121f560008301846121d1565b92915050565b600080fd5b600080fd5b6000601f19601f8301169050919050565b7f4e487b7100000000000000000000000000000000000000000000000000000000600052604160045260246000fd5b61224e82612205565b810181811067ffffffffffffffff8211171561226d5761226c612216565b5b80604052505050565b600061228061212c565b905061228c8282612245565b919050565b600067ffffffffffffffff8211156122ac576122ab612216565b5b6122b582612205565b9050602081019050919050565b82818337600083830152505050565b60006122e46122df84612291565b612276565b905082815260208101848484011115612300576122ff612200565b5b61230b8482856122c2565b509392505050565b600082601f830112612328576123276121fb565b5b81356123388482602086016122d1565b91505092915050565b6000819050919050565b61235481612341565b811461235f57600080fd5b50565b6000813590506123718161234b565b92915050565b6000806040838503121561238e5761238d612136565b5b600083013567ffffffffffffffff8111156123ac576123ab61213b565b5b6123b885828601612313565b92505060206123c985828601612362565b9150509250929050565b6123dc81612341565b82525050565b60006020820190506123f760008301846123d3565b92915050565b600081519050919050565b600082825260208201905092915050565b60005b8381101561243757808201518184015260208101905061241c565b60008484015250505050565b600061244e826123fd565b6124588185612408565b9350612468818560208601612419565b61247181612205565b840191505092915050565b600060208201905081810360008301526124968184612443565b905092915050565b6000602082840312156124b4576124b3612136565b5b60006124c284828501612362565b91505092915050565b600073ffffffffffffffffffffffffffffffffffffffff82169050919050565b60006124f6826124cb565b9050919050565b612506816124eb565b82525050565b600060208201905061252160008301846124fd565b92915050565b612530816124eb565b811461253b57600080fd5b50565b60008135905061254d81612527565b92915050565b6000806040838503121561256a57612569612136565b5b60006125788582860161253e565b925050602061258985828601612362565b9150509250929050565b600080604083850312156125aa576125a9612136565b5b60006125b885828601612362565b92505060206125c985828601612362565b9150509250929050565b6000806000606084860312156125ec576125eb612136565b5b60006125fa8682870161253e565b935050602061260b8682870161253e565b925050604061261c86828701612362565b9150509250925092565b6000806040838503121561263d5761263c612136565b5b600061264b85828601612362565b925050602061265c8582860161253e565b9150509250929050565b60006020828403121561267c5761267b612136565b5b600061268a8482850161253e565b91505092915050565b61269c816121c5565b81146126a757600080fd5b50565b6000813590506126b981612693565b92915050565b600080604083850312156126d6576126d5612136565b5b60006126e48582860161253e565b92505060206126f5858286016126aa565b9150509250929050565b600067ffffffffffffffff82111561271a57612719612216565b5b61272382612205565b9050602081019050919050565b600061274361273e846126ff565b612276565b90508281526020810184848401111561275f5761275e612200565b5b61276a8482856122c2565b509392505050565b600082601f830112612787576127866121fb565b5b8135612797848260208601612730565b91505092915050565b600080600080608085870312156127ba576127b9612136565b5b60006127c88782880161253e565b94505060206127d98782880161253e565b93505060406127ea87828801612362565b925050606085013567ffffffffffffffff81111561280b5761280a61213b565b5b61281787828801612772565b91505092959194509250565b600061282e826124cb565b9050919050565b61283e81612823565b82525050565b600060a08201905061285960008301886123d3565b61286660208301876123d3565b61287360408301866123d3565b6128806060830185612835565b61288d60808301846121d1565b9695505050505050565b600080604083850312156128ae576128ad612136565b5b60006128bc8582860161253e565b92505060206128cd8582860161253e565b9150509250929050565b7f4e487b7100000000000000000000000000000000000000000000000000000000600052601160045260246000fd5b600061291182612341565b91507fffffffffffffffffffffffffffffffffffffffffffffffffffffffffffffffff8203612943576129426128d7565b5b600182019050919050565b600060608201905061296360008301866123d3565b61297060208301856123d3565b61297d60408301846123d3565b949350505050565b7f4e487b7100000000000000000000000000000000000000000000000000000000600052602260045260246000fd5b600060028204905060018216806129cc57607f821691505b6020821081036129df576129de612985565b5b50919050565b7f596f7520646f206e6f74206f776e2074686973204e4654000000000000000000600082015250565b6000612a1b601783612408565b9150612a26826129e5565b602082019050919050565b60006020820190508181036000830152612a4a81612a0e565b9050919050565b7f5072696365206d7573742062652067726561746572207468616e203000000000600082015250565b6000612a87601c83612408565b9150612a9282612a51565b602082019050919050565b60006020820190508181036000830152612ab681612a7a565b9050919050565b6000604082019050612ad260008301856123d3565b612adf60208301846123d3565b9392505050565b6000606082019050612afb60008301866124fd565b612b0860208301856123d3565b612b1560408301846124fd565b949350505050565b600081905092915050565b6000612b33826123fd565b612b3d8185612b1d565b9350612b4d818560208601612419565b80840191505092915050565b6000612b658285612b28565b9150612b718284612b28565b91508190509392505050565b6000612b8882612341565b9150612b9383612341565b9250828202612ba181612341565b91508282048414831517612bb857612bb76128d7565b5b5092915050565b7f4e487b7100000000000000000000000000000000000000000000000000000000600052601260045260246000fd5b6000612bf982612341565b9150612c0483612341565b925082612c1457612c13612bbf565b5b828204905092915050565b7f4974656d20646f65736e27742065786973740000000000000000000000000000600082015250565b6000612c55601283612408565b9150612c6082612c1f565b602082019050919050565b60006020820190508181036000830152612c8481612c48565b9050919050565b7f4e6f7420656e6f75676820657468657220746f20636f766572206974656d207060008201527f7269636500000000000000000000000000000000000000000000000000000000602082015250565b6000612ce7602483612408565b9150612cf282612c8b565b604082019050919050565b60006020820190508181036000830152612d1681612cda565b9050919050565b7f53656c6c65722063616e6e6f7420627579207468656972206f776e206974656d600082015250565b6000612d53602083612408565b9150612d5e82612d1d565b602082019050919050565b60006020820190508181036000830152612d8281612d46565b9050919050565b60008190508160005260206000209050919050565b60006020601f8301049050919050565b600082821b905092915050565b600060088302612deb7fffffffffffffffffffffffffffffffffffffffffffffffffffffffffffffffff82612dae565b612df58683612dae565b95508019841693508086168417925050509392505050565b6000819050919050565b6000612e32612e2d612e2884612341565b612e0d565b612341565b9050919050565b6000819050919050565b612e4c83612e17565b612e60612e5882612e39565b848454612dbb565b825550505050565b600090565b612e75612e68565b612e80818484612e43565b505050565b5b81811015612ea457612e99600082612e6d565b600181019050612e86565b5050565b601f821115612ee957612eba81612d89565b612ec384612d9e565b81016020851015612ed2578190505b612ee6612ede85612d9e565b830182612e85565b50505b505050565b600082821c905092915050565b6000612f0c60001984600802612eee565b1980831691505092915050565b6000612f258383612efb565b9150826002028217905092915050565b612f3e826123fd565b67ffffffffffffffff811115612f5757612f56612216565b5b612f6182546129b4565b612f6c828285612ea8565b600060209050601f831160018114612f9f5760008415612f8d578287015190505b612f978582612f19565b865550612fff565b601f198416612fad86612d89565b60005b82811015612fd557848901518255600182019150602085019450602081019050612fb0565b86831015612ff25784890151612fee601f891682612efb565b8355505b6001600288020188555050505b505050505050565b600081519050919050565b600082825260208201905092915050565b600061302e82613007565b6130388185613012565b9350613048818560208601612419565b61305181612205565b840191505092915050565b600060808201905061307160008301876124fd565b61307e60208301866124fd565b61308b60408301856123d3565b818103606083015261309d8184613023565b905095945050505050565b6000815190506130b78161216c565b92915050565b6000602082840312156130d3576130d2612136565b5b60006130e1848285016130a8565b91505092915050565b60006040820190506130ff60008301856124fd565b61310c60208301846123d3565b939250505056fea2646970667358221220d8eabdc4e267b9ba79e736faf7b7955ed03cf23f6010a0372160ec798c526c9764736f6c634300081b0033",
  "linkReferences": {},
  "deployedLinkReferences": {}
}